:020000041000EA
:10E0000000000220ED3A0110213901102B3B0110D4
:10E010002D3B01102F3B0110313B0110000000008F
:10E02000000000000000000000000000333B011071
:10E03000353B011000000000373B0110393B011057
:10E040003D3B01103F3B0110413B0110433B0110A0
:10E05000453B0110473B0110493B01104B3B011070
:10E060004D3B01104F3B0110513B0110533B011040
:10E07000553B0110573B0110593B01105B3B011010
:10E080005D3B01105F3B0110613B0110633B0110E0
:10E09000653B0110673B0110693B01106B3B0110B0
:10E0A000A5380110AD380110713B0110733B011010
:10E0B000753B0110773B0110793B01107B3B011050
:10E0C0007D3B01107F3B0110813B0110833B011020
:10E0D000853B0110873B0110893B01108B3B0110F0
:10E0E0008D3B01108F3B0110913B0110933B0110C0
:10E0F000953B0110973B0110993B01109B3B011090
:10E100009D3B01109F3B0110A13B0110A33B01105F
:10E11000A53B0110A73B0110A93B0110AB3B01102F
:10E12000AD3B0110AF3B0110B13B0110B33B0110FF
:10E13000B53B0110B73B0110B93B0110BB3B0110CF
:10E14000BD3B0110BF3B0110C13B0110C33B01109F
:10E15000C53B0110C73B0110C93B0110CB3B01106F
:10E16000CD3B0110CF3B0110D13B0110D33B01103F
:10E17000D53B0110D73B0110D93B0110DB3B01100F
:10E18000DD3B0110DF3B0110E13B0110E33B0110DF
:10E19000E53B0110E73B0110E93B0110EB3B0110AF
:10E1A000ED3B0110EF3B0110F13B0110F33B01107F
:10E1B000F53B0110F73B0110F93B0110FB3B01104F
:10E1C000FD3B0110FF3B0110013C0110033C01101D
:10E1D000053C0110073C0110093C01100B3C0110EB
:10E1E000000000000000000000000000000000002F
:10E1F000000000000000000000000000000000001F
:10E2000000488047ED3A01100348044B834202D096
:10E21000034B03B118477047CC0B0020CC0B0020F8
:10E22000000000000548064B1B1AD90F01EBA301A3
:10E23000491002D0034B03B118477047CC0B0020A4
:10E24000CC0B00200000000010B5064C237843B929
:10E25000FFF7DAFF044B13B10448AFF3008001234A
:10E26000237010BD000C00200000000040090210C7
:10E2700008B5044B1BB104490448AFF30080BDE866
:10E280000840CFE700000000040C00204009021005
:10E290002DE9F04792460746D8B3884699B311F066
:10E2A000010530D1DFF87490461C16F8014C317826
:10E2B00009EB050022462CB107F02EFA0135013C8E
:10E2C00055FA84F50236F31B013B9845EDD825B984
:10E2D0001248CAF80050BDE8F0876B1E19F8031009
:10E2E0004A1E1F2AF4D8012D15D00D4828444B444E
:10E2F000401A03E083420ED099450CD013F801294F
:10E300008A42F7D0E4E700252846CAF80050BDE865
:10E31000F0870546DDE76D1ADAE700BF1C0C002028
:10E320001B0C002070B5DCB01C4601230E460546D0
:10E33000114600932022609B03A802F0A9FF38B980
:10E3400033462A46214603A803F022F85CB070BD8C
:10E350004FF0FF30FAE700BF70B5DCB01C46002379
:10E360000E460546114600932022609B03A802F04A
:10E370008FFF38B933462A46214603A802F096FF9C
:10E380005CB070BD4FF0FF30FAE700BF2DE9F041FF
:10E39000E0B00E4604460021174608A86FF00102BF
:10E3A00098469DF8985103F061F9202332460621E2
:10E3B0000DEB030003F022FA00283AD14246394619
:10E3C00008A803F0A1F8A0BB694608A803F0D6F896
:10E3D000064670BB08A803F059F9DDB9204604F1E0
:10E3E000200669462A4650F8043B51F8044B864201
:10E3F00083EA040342EA0302F5D1C2F30726164377
:10E40000C2F307431E4346EA1266F6B2304660B0D6
:10E41000BDE8F0816D460FCD20606160A260E360D1
:10E420000FCD206130466161A261E36160B0BDE85B
:10E43000F0814FF0FF36E9E72DE9F0470021C2B047
:10E4400080462022514807F067F95149404607F0BD
:10E4500047FC002800F083804FF00009861D02AFC2
:10E46000CA4600E0661C2C21304607F0A7F9044696
:10E47000851BA0B10F2DF5D82A463146384607F046
:10E48000ABF8B9F1070F07F805A0EBD8384607F04D
:10E49000B7FF3E4B43F8290009F10109E2E75D218E
:10E4A000304607F08BF910B1851B0F2D59D900218B
:10E4B0004FF48072384607F02FF93649404607F08E
:10E4C0000FFC40B1841D2B21204607F077F910B1D5
:10E4D000021BFF2A55D9384607F0B2F8012403463B
:10E4E0003A46394600942C48FFF750FF384607F06B
:10E4F000A7F83A4603460DF10D0100942748FFF7AF
:10E5000045FF384607F09CF83A4603460DF11201E4
:10E5100000942348FFF73AFF384607F091F83A464F
:10E5200003460DF1170100941E48FFF72FFF3846F0
:10E5300007F086F83A46034607A900941A48FFF701
:10E5400025FF384607F07CF8009403463A460DF163
:10E5500021011648FFF71AFF42B0BDE8F08702AF6D
:10E56000A5E731462A46384607F036F8B9F1070FD5
:10E570007C559CD8384607F043FF044B43F82900EC
:10E5800095E72146384607F027F8A4E7B01D00209C
:10E59000ACDB0110B4DB0110BC1C00209C1C002073
:10E5A0007C1C00205C1C00203C1C00201C1C00204B
:10E5B0002DE9F043294A2A4E2A4F2B4D2B4C4FF080
:10E5C000040C00EB060E87FB0E384FEAEE73C3EB2C
:10E5D000E85302FB13E34FF0040803EB430E03EB95
:10E5E0008E032B444FEA932EA4FB0E9E4FEA5E1E31
:10E5F000B8F1010802FB1E33EFD1CB1A990AA4FB34
:10E6000001E1490902FB113101EB060E4FEA9E239D
:10E61000A4FB03835B0902FB13E34FF0040803EB45
:10E62000430E03EB8E032B444FEA932EA4FB0E9E66
:10E630004FEA5E1EB8F1010802FB1E33EFD1C31A88
:10E64000980AA4FB00E04009BCF1010C02FB103069
:10E65000B7D107480844C0B2BDE8F08300A49A03CC
:10E6600078563412BFF48323C7AB2551F5832300BA
:10E67000A7A39A03F0B5A9B08022002108A807F04B
:10E680004BF8104E104D114B01AC0027184656F8B0
:10E69000041BFFF78DFF55F8043F207004F8017F3D
:10E6A000002BF3D101AA0A4908A808F08BFD08A89D
:10E6B00006F0C6FF08A982B2472000F02FFD29B05E
:10E6C000F0BD00BF6CE20110DCE20110B6E4FF0116
:10E6D000BCDB011030B51B4BABB0002215460192DC
:10E6E00003F1C0041146187A01EB81020DF1A80C68
:10E6F0000CEB820290B1A2F1A40EDD6842F8A05C9E
:10E70000A2F19C0C5D691A69CEF80820CEF80C5075
:10E71000DA699D690131CCE90252054618339C4201
:10E72000E1D165B101EB810292000432019192B214
:10E7300001A94C2000F0F2FC00202BB030BD0422D7
:10E74000F6E700BFE81C0020F0B5203887B00D4682
:10E7500086B200240A4600945D493346A819FFF7A3
:10E7600015FEA042C0F296805A4F38687968BA68A0
:10E77000FB680DF1080CACE80F0002AB00933A46C1
:10E780002B4631462846FFF7CDFD0028C0F29A807F
:10E790006E69002E00F084802A684F4B9A4267D140
:10E7A0004E4BA44653F8044F0CF1010C0CB1A64299
:10E7B00014D0BCF1080FF5D1002005F05BF9012061
:10E7C00005F058F9022005F055F9002005F032F95E
:10E7D00043493422452000F0A1FC1FE0414A4FF09C
:10E7E000000C1446E3689E421CD0237A1834CBB147
:10E7F0000CF1010CBCF1080FF4D1002005F03AF93E
:10E80000012005F037F9022005F034F9002005F069
:10E8100011F935493C22452000F080FC4FF0FF30D3
:10E8200007B0F0BD0CEB4C0302EBC3030120696899
:10E83000DE601872A868C3E904100CF1010C0CEB3F
:10E840004C0C02EBCC03E868296942F83C002748ED
:10E85000596000F083FB23492448C82200F0B8FB2C
:10E8600000221146532000F059FC002007B0F0BDF3
:10E87000204605F0FFF8012005F0FCF8022005F025
:10E88000F9F8204605F0D6F819491F22452000F076
:10E8900045FCC3E717492422452000F03FFCBDE7B3
:10E8A000304605F0E7F8012005F0E4F8022005F015
:10E8B000E1F8304605F0BEF80F494622452000F049
:10E8C0002DFCABE70D491F22452000F027FCA5E7F2
:10E8D0003C1C00209C1C0020EFBEADDEAC1D0020C7
:10E8E000C8DC0110E81C002088DC011000C0071003
:10E8F00068DC0110D8DB011020DC011000DC011005
:10E900002DE9F04FCF4BDDB0044602AF1868A4F1FB
:10E9100020098846002605F0FFFF1FFA89F98022AA
:10E92000002107F1E80006F0F7FEC74900964B46C4
:10E93000424608EB0900FFF729FDB042C0F26F81A3
:10E940002C3CA3B209F107056A463B60EB08A2EB39
:10E95000C3039D4602AC4A46414620467E6107F00D
:10E9600055FEBA4BDFF8E8A29869D9691833BB6045
:10E9700007F1200303C307F1780004F053FF0422DA
:10E9800007F1140107F1780004F028FE082207F1CE
:10E99000200107F1780004F021FE07F1380107F1AA
:10E9A000780004F0A1FE07F128067B69DAF8000080
:10E9B000DAF80410DAF80820FB61BB6B336007F16A
:10E9C0002C0307C30123009307F11C020423AAF1BF
:10E9D000040107F15800FFF7D9FC0096234607F120
:10E9E000580249462046FFF79DFC002803DB029BA6
:10E9F000002B00F0F680ED08EB007B60954DC7F82A
:10EA00000C80002404E00134082C05F118055FD0C7
:10EA10002B7A002BF7D0BB681868596807F12003E0
:10EA200003C3EB68BB6107F1780004F0FBFE04222E
:10EA300007F1180107F1780004F0D0FD082207F172
:10EA4000200107F1780004F0C9FD07F1380107F152
:10EA5000780004F049FED7F838C0DAF80000DAF898
:10EA60000410DAF80820C6F800C0D7F818C0C7F8B4
:10EA70001CC04FF0010E07F12C0CACE8070004237A
:10EA8000CDF800E0744907F11C0207F15800FFF7C8
:10EA90007DFC7B68F968E846ADEB030D0DF1080BD2
:10EAA0004A46584607F0B2FD00965B4607F1580209
:10EAB00049465846FFF736FC002803DBBB69029A3B
:10EAC0009A421DD00134082CC54605F118059FD186
:10EAD000002004F0CFFF012004F0CCFF022004F05E
:10EAE000C9FF002004F0A6FF5C491322452000F076
:10EAF00015FB4FF0FF3007F5B677BD46BDE8F08F48
:10EB00004546D7F80C804A465946404607F07EFDF8
:10EB10005049631C03EB430304EB440401EBC404BE
:10EB200001EBC30251F833605268D4E90413AD46D7
:10EB3000D8F80450D8F80800D8F800408D4270EB9F
:10EB400003035AD3AE42824157D3454BD3E9001257
:10EB5000A9428241434903D30A68A24200F0AB8034
:10EB6000C3E900500C6016223F49472000F0D6FA56
:10EB700064B1384B03F1C00102E0183399427DD0F3
:10EB8000DA68A242F9D11A7A002AF6D0374913225C
:10EB9000472000F0C3FA396807F1780208F10C0049
:10EBA000FFF776FB40220146442000F0B7FA254BE0
:10EBB000186805F0B3FE2E49024607F1E80008F098
:10EBC00001FB07F1E80006F03BFD07F1E80182B226
:10EBD000472000F0A3FA002007F5B677BD46BDE850
:10EBE000F08F21464A46404607F010FDD8F8004015
:10EBF000D8F80450D8F80800A7E7002004F03AFF3E
:10EC0000012004F037FF022004F034FF002004F05C
:10EC100011FF18491B22452000F080FA69E73046B1
:10EC200004F028FF012004F025FF022004F022FF59
:10EC3000304604F0FFFE10491722452000F06EFA1E
:10EC400057E700BF040000205C1C00209C1C002033
:10EC5000C01C0020E81C0020BC1C002018DD011096
:10EC6000E01C00200000002068DD011080DD0110A4
:10EC700094DD01102CDD011000DD0110002004F0F6
:10EC8000F9FE012004F0F6FE022004F0F3FE00205D
:10EC900004F0D0FE2246114907F1E80008F092FA8C
:10ECA00007F1E80006F0CCFC07F1E80182B245204C
:10ECB00000F034FA1DE7002004F0DCFE012004F02F
:10ECC000D9FE022004F0D6FE002004F0B3FE044971
:10ECD0001C22452000F022FA0BE700BFB0DD011036
:10ECE00048DD011030B54FF0FF33B5B0274A284D4D
:10ECF00010684FF48074CDE90143264C002201A92D
:10ED000005F08CFC00F012F92348C822214600F0DF
:10ED100027F92368AB4205D100F092FA002828DBDE
:10ED200035B030BD1D491E22472000F0F7F94FF0E5
:10ED3000FF304FF0FF314FF0000C256004AB34AAD8
:10ED4000C3E90201C3E9040103F818CB9342F7D1E8
:10ED5000C02204A9124807F059FC0F4800F0FEF841
:10ED60000C490D48C82200F033F900F069FA002878
:10ED7000D6DA002004F07EFE012004F07BFE0220A3
:10ED800004F078FE002004F055FEFEE704000020A9
:10ED9000EFBEADDEE81C002000C00710DCDD011076
:10EDA000F01C002030B5ADF5025D83B0802200215B
:10EDB00002A806F0B1FC4C484C4C4D4DFFF73CFB13
:10EDC000FFF790FF4B491022472000F0A7F90622D9
:10EDD0002146472000F0A2F9002004F04BFE01205C
:10EDE00004F048FE022004F045FE012004F022FE5B
:10EDF0000DF1060222A90DF1050000F0CDF9034640
:10EE00000020834224DB9DF805304C2B4FF000009E
:10EE100057D0532B41D0442B2BD0002004F02AFE96
:10EE2000012004F027FE022004F024FE002004F05C
:10EE300001FE9DF80520294602A808F0C3F902A8A2
:10EE400006F0FEFB02A982B2452000F067F9BEE79A
:10EE500004F010FE012004F00DFE022004F00AFE72
:10EE6000002004F0E7FD24492022452000F056F957
:10EE7000ADE704F0FFFD012004F0FCFD022004F0EA
:10EE8000F9FD002004F0D6FD022004F0D3FDBDF80A
:10EE9000060022A9FFF734FD99E704F0EBFD0120FD
:10EEA00004F0E8FD022004F0E5FD002004F0C2FDBE
:10EEB000012004F0BFFDBDF8060022A9FFF744FCC5
:10EEC00085E704F0D7FD012004F0D4FD022004F012
:10EED000D1FD012004F0AEFD022004F0ABFDFFF7F0
:10EEE000C9FBFFF7F7FB72E7FCDD01108CDE0110B8
:10EEF000B8DE011078DE011094DE0110094A536A71
:10EF0000D90703D5516A21F0010151629B0700D452
:10EF10007047044A0448536A23F00203536207F01F
:10EF2000A9BF00BF00900240D0DE011008B508491B
:10EF3000172004F0E1FF074B4FF400021A604FF472
:10EF4000407005F01DF9BDE80840034805F044BBDA
:10EF5000FDEE001000E100E000A0024011F0ECBC6A
:10EF600070B5194CEAB04FF4C87205460E4606A8B3
:10EF7000002106F0D1FB20686168A268E3680DF10A
:10EF8000080CACE80F0028464FF4C872614605F043
:10EF9000F5F8002300930D494FF4B87306AA62A850
:10EFA000FFF7F4F960B902AB0546009322463346F9
:10EFB0004FF4B87106A8FFF7B5F928466AB070BDDE
:10EFC0004FF0FF35F9E700BF7C1C00201C1C00201F
:10EFD0002DE9F0414FF4C878EAB005460E461746D1
:10EFE0000021424606A806F097FB104C02AB0093A6
:10EFF00020686168A2689C46E368ACE80F0022467E
:10F00000634639463046FFF7A7F901224FF4B8733B
:10F010000092074906AA62A8FFF7B8F906AA414676
:10F02000284605F0A9F86AB0BDE8F0817C1C0020F4
:10F030001C1C002081B32DE9F047DFF8608082B00E
:10F040000F46451E002444F2251902AE00F00EF9C9
:10F0500000281ADB0134BC4205F8010F18D0E3B2D6
:10F06000002BF3D1CDF804900DF1040A1AF8010B2E
:10F0700000F002F9B245F9D1D8F80030986806F0EE
:10F080008FFF00F0F3F80028E4DA02B0BDE8F08763
:10F09000002002B0BDE8F087002070471800002073
:10F0A00000B583B00023019300F0E0F8C0B225283A
:10F0B0008DF80400F8D100F0D9F8022103460DF1D3
:10F0C00006008DF80530FFF7B5FF9DF805004138C3
:10F0D00018BF4FF0FF30C0B203B05DF804FB00BFB3
:10F0E000F8B591B117460E46451E0024013415F8B7
:10F0F000010F00F0C1F8B442E3B206D0002BF5D105
:10F10000002FF3D0FFF7CCFFF0E7034B1B689868A4
:10F1100006F046FF0020F8BD180000202DE9F04160
:10F1200082B025230646174688468DF804308DF8B0
:10F130000500ADF8062001AC02AD14F8010B00F09B
:10F140009BF8AC42F9D1134B1B68986806F028FF76
:10F15000412E02D0472E04D197B9002002B0BDE85D
:10F16000F081FFF79DFF002FF7D00122394640467E
:10F17000FFF7B6FFFFF794FF002002B0BDE8F08173
:10F18000002239464046FFF7ABFF002002B0BDE841
:10F19000F08100BF18000020F0B583B00023009379
:10F1A000002848D00E461546044600F05FF8C0B26D
:10F1B00025288DF80000F8D100F058F802218DF8CC
:10F1C00001000DEB0100FFF735FF9DF801302370C2
:10F1D00015B1BDF802202A80412B02D1002003B0D6
:10F1E000F0BD44F22513019301AC02AD14F8010BFC
:10F1F00000F042F8A542F9D1104F3B68986806F03C
:10F20000CFFEBDF802100029E8D026B13046FFF746
:10F2100011FF00280FDB44F22513019301AC02AD6E
:10F2200014F8010B00F028F8A542F9D13B68986862
:10F2300006F0B6FED2E74FF0FF30D0E7180000200E
:10F2400010B5084802224FF4E13105F0BBFE044638
:10F2500008B9204610BD2146034807F0F7FF2046B5
:10F2600010BD00BF00200440F8DE0110014805F089
:10F27000A1BF00BF00200440024A53681B06FCD413
:10F2800010627047002004402DE9F04F87B00D68F0
:10F290004F688E68CC68CDE9003203682DBA5D40B6
:10F2A00043683FBA5F40836836BA5E40C368F9B2CC
:10F2B000F2B224BA5C4001F54071EA4B02F54072AB
:10F2C0005FFA84FE53F8218053F822100EF5407E39
:10F2D0002A0E53F82EE053F822205FFA85FC82EACA
:10F2E0000E020CF5407C4FEA176E53F82CC053F811
:10F2F0002EE08EEA0C0E4FEA166C53F82CC08CEA06
:10F30000080C4FEA146853F8288088EA0101C7F313
:10F310000748C7F3072707F50077029153F827B08E
:10F320000169C6F30747C6F3072606F5007608F518
:10F33000807853F8269053F828A0C4F30746C4F306
:10F34000072407F5807704F500744A40416953F8B3
:10F35000278053F8247006F58076C5F30744C5F37B
:10F3600007258EEA010E05F50075816953F82660C0
:10F3700053F825508CEA010C04F580748CEA060CD5
:10F380008CEA050C53F82440C56902996940614034
:10F3900081EA0B01CCB28EEA080E04F540748EEAC5
:10F3A000070E53F82450CEF3074404F5807482EA24
:10F3B0000A0253F824705FFA8EF404F5407482EA6E
:10F3C000090203945FFA8CF404F54079140ED6B266
:10F3D000C2F3074BC2F3072253F82440CDF8149030
:10F3E00002F500720492CCF30728026A08F500784F
:10F3F0006C4054404FEA1E697C4006F5407653F855
:10F40000287053F82660039ACEF3072E67400EF556
:10F41000007A53F82940DDF8149053F82AA04FEAF7
:10F420001C6ECCF3074C0CF5807574404FEA116CE0
:10F4300053F82E6053F822E00295029A53F82CC03C
:10F4400086EA0E0653F829E0C1F30745C1F3072108
:10F4500001F500718CEA0E0C53F822E0049A53F87F
:10F46000219053F82210426A05F580755440826A53
:10F4700053F8258056400BF5807B86EA08064E40FF
:10F48000C16A53F82B508CEA010C8CEA050C8CEA0B
:10F490000A0C5FFA8CF284EA0E0402F5407284EAE8
:10F4A000090453F82210C4F3074202F5807253F89E
:10F4B00022A0C6F3072202F5007253F822500295EB
:10F4C000FAB202F5407253F82250C6F3074202F531
:10F4D000807253F822200392CCF3072202F50072C7
:10F4E00053F822E0CDF810E0E2B202F540725FFA84
:10F4F00086FE53F822B0CCF3074202F580724FEA41
:10F500001C6C53F8229053F82C20C7F3072C0CF5F1
:10F51000007C360E53F82C8053F826604FEA176CA7
:10F5200086EA0B0653F82CB0C7F307478BEA010BAA
:10F5300007F58071270E0EF5407E53F8277087EA95
:10F54000050C056B8BEA050B029D8BEA0A076F40E1
:10F55000456B8CEA050C039D8CEA050C049D8CEA36
:10F56000050C856B6E4053F82E50C4F3072482EAD5
:10F57000050E04F5007453F82150C16B53F8242094
:10F580008EEA010E8EEA050E8EEA020E5FFA8EF208
:10F5900002F5407286EA090653F82210FAB202F523
:10F5A000407286EA080653F822805FFA8CF202F570
:10F5B000407253F82250F2B202F5407253F82240E2
:10F5C0003A0E53F8222051404FEA1C6253F8222091
:10F5D00082EA08024FEA166853F8288088EA05058F
:10F5E0004FEA1E6853F8288088EA0404CCF30748E1
:10F5F000CCF3072C08F580780CF5007C53F828B084
:10F60000029453F82C400394C6F3074C0CF5807C0D
:10F61000C6F3072606F5007653F82C90046C53F8D1
:10F6200026A0CEF3074CCEF3072E0EF500766140F0
:10F63000446C53F826800CF5807CC7F30746C7F36B
:10F640000727624007F50077846C53F82CE053F8E5
:10F650002770654085EA0E0506F580767D40029CA0
:10F66000C76C01E04CF4011053F826607C40039F06
:10F6700074407C40E6B282EA090206F5407682EAEE
:10F68000080253F82670C2F3074606F5807681EA31
:10F690000B0153F826C0CDF808C0C5F3074C0CF594
:10F6A000807B5FFA82FC81EA0A01C5F307260CF52C
:10F6B00040795FFA85FC2D0E04950D0E06F5007657
:10F6C00053F8255053F826E0CDF80CE0CEB26F4049
:10F6D00006F54076150E53F8266053F8255053F87A
:10F6E00029907540066D7740029E7740039E7740D3
:10F6F000466D754053F82B60DDF810B04FEA146882
:10F70000C4F3074EC4F307240CF5407A754004F5A2
:10F71000007453F82B60C1F3074CC2F30722C1F306
:10F72000072186EA090902F5007253F8286053F8A8
:10F730002A8053F824400EF5807E01F5007153F8BD
:10F740002EA00CF5807C85EA040E53F8214053F876
:10F750002210826D86EA080653F82C8089EA020C92
:10F76000C26D564086EA08064E40F2B202F540727B
:10F770008CEA0A0C53F82280FAB202F540728CEA45
:10F78000040C53F822505FFA8EF202F5407253F8DF
:10F7900022405FFA8CF202F5407253F822103A0EC2
:10F7A00053F8222082EA08024FEA1E6853F82880A4
:10F7B00088EA05054FEA1C6853F8288088EA0404A3
:10F7C0004FEA166853F8288088EA0101CEF307480B
:10F7D000CEF3072E0EF5007E029153F82E10039102
:10F7E000CCF3074ECCF3072C0CF5007C016E53F8DC
:10F7F0002CA0C6F3074CC6F3072608F5807806F55B
:10F8000000764A40416E53F828B053F826800EF532
:10F81000807E0CF5807CC7F30746C7F307274D4071
:10F8200007F50077816E53F82E9053F82CE053F8CB
:10F8300027704C4084EA0E0406F580767C400299DD
:10F84000C76E53F826607940039F7140794082EA81
:10F850000B0285EA090582EA0A0285EA08055FFAD1
:10F8600081F8170E08F540785FFA82FEE6B253F889
:10F87000279053F828700EF5407E5FFA85FC06F558
:10F8800040760CF5407C53F826B053F82C8089EA7A
:10F8900007072E0E53F82E9053F82660C5F3074E37
:10F8A000C5F307254FEA146C0EF5807E05F500754B
:10F8B00053F82EA053F82CC053F825E0C4F30745A5
:10F8C000C4F3072404F500748CEA080C4FEA1168AD
:10F8D00086EA090653F8249053F82880C1F30744B8
:10F8E000C1F3072105F5807504F5807401F50071F9
:10F8F00088EA0B0B53F8258053F8245053F8214025
:10F90000C2F30741C2F3072202F5007201F58071CC
:10F9100053F822200292026F53F821105740426F91
:10F92000564086EA08066640846F029A8CEA040C08
:10F93000C46F8CEA050C8BEA04048CEA020C4C4080
:10F9400072465440E2B202F5407287EA0A0753F861
:10F950002250C6F3074202F5807287EA090753F87E
:10F9600022200292CCF3072202F50072C7F3074966
:10F9700053F822100391FAB202F5407209F580792A
:10F9800053F82210CCF3074202F5807253F822E0BC
:10F99000CDF810E0C4F3072202F500725FFA8CFE86
:10F9A00053F82280CDF81480F2B202F540724FEA8B
:10F9B0001C6C53F8222053F82CC08CEA02024FEA48
:10F9C000176CC7F3072753F82CB08BEA050B350EDD
:10F9D00007F5007C53F82550029F85EA010AD0F80C
:10F9E00080508BEA050B039D8BEA07076F40D0F828
:10F9F00084508AEA050A049D4FEA14688AEA050AD7
:10FA0000C4F30744059D53F82880C6F3072604F580
:10FA1000807406F500718AEA0506D0F8885053F81C
:10FA2000244053F821100EF5407E6A4053F82E50C2
:10FA300082EA040E53F82C2053F829408EEA020E75
:10FA4000D0F88C2088EA050585EA020C8CEA040CC3
:10FA50008CEA010C5FFA8CF202F540724FEA1768EB
:10FA600053F8221053F82880FAB202F5407288EA5F
:10FA700001014FEA166853F8225053F82880F2B279
:10FA800002F5407288EA05054FEA1E6853F82240E5
:10FA900053F828805FFA8EF288EA040402F5407277
:10FAA0004FEA1C6853F8222053F8288088EA0202A3
:10FAB000C6F30748C6F3072606F50076029253F808
:10FAC00026200392CEF3074606F58076CEF3072E66
:10FAD00053F82690CCF3074608F580780EF5007EA3
:10FAE00006F5807653F828B053F82EA053F826E098
:10FAF000D0F890205140D0F89420C7F30746C7F3C0
:10FB00000727554007F50077D0F8982053F827705D
:10FB1000544006F5807684EA0E04029A53F8266073
:10FB20007C40D0F89C70CCF3072C7A400CF5007C1C
:10FB30007240009E53F82C80039F81EA0B0185EAF6
:10FB40000905052E81EA0A0185EA080582EA07020D
:10FB500040F2ED81D6B206F54076C5F3074E53F874
:10FB60002670CEB206F540760EF5807E53F826C09C
:10FB7000EEB206F5407653F82680E6B206F54076FA
:10FB800053F826B00E0E53F8266077402E0EC5F3BC
:10FB9000072553F8266005F5007586EA0C064FEA3E
:10FBA000146C53F825A053F82CC0C4F30745C4F3D4
:10FBB000072404F500748CEA080C4FEA126853F825
:10FBC000249053F82880C2F30744C2F3072205F5B6
:10FBD000807502F5007288EA0B0B53F82E8053F8FB
:10FBE00025E053F82250C1F3074202F5807204F574
:10FBF000807453F822200292D0F8A02053F82440B9
:10FC00005740D0F8A420564086EA0E06C1F30721DB
:10FC1000754001F50071D0F8A86053F82110029AE0
:10FC20008CEA060C8CEA040C8CEA010CD0F8AC10BF
:10FC30008BEA0106564052465640F2B202F5407237
:10FC4000CCF3074453F82210C5F3074202F5807243
:10FC500004F5807453F822B053F824400394CCF395
:10FC60000722C6F3072402F5007287EA080704F5A5
:10FC7000007487EA090753F8222053F824E002921F
:10FC8000ECB2FAB2CDF810E002F540725FFA8CFEE9
:10FC900004F540744FEA1C6C53F8222053F82440BA
:10FCA00053F82CC08CEA04044FEA176C4FEA16682C
:10FCB00053F82CC053F828808CEA01014FEA156CE8
:10FCC000C6F3074653F82CA08AEA020AD0F8B020FF
:10FCD0005140029A81EA0B015140D0F8B4208AEADF
:10FCE000020A039A8AEA020A049AC5F3072506F56E
:10FCF000807605F5007CC7F307498AEA0205C7F359
:10FD00000727D0F8B82053F8266007F500770EF5DE
:10FD1000407E5440744053F8276053F82E2053F827
:10FD20002C7009F580797440D0F8BC6053F829E054
:10FD300088EA02027240009E82EA0E02062E82EAE1
:10FD4000070200F0F480D6B206F54076C5F3074E00
:10FD500053F82670CEB206F540760EF5807E53F845
:10FD600026C0EEB206F5407653F82680E6B206F5D8
:10FD7000407653F826B00E0E53F8266077402E0ECC
:10FD8000C5F3072553F8266005F5007586EA0C06CD
:10FD90004FEA146C53F825A053F82CC0C4F3074560
:10FDA000C4F3072404F500748CEA080C4FEA1268C7
:10FDB00053F8249053F82880C2F30744C2F3072273
:10FDC00005F5807502F5007288EA0B0B53F82E805A
:10FDD00053F825E053F82250C1F3074202F5807230
:10FDE00004F5807453F822200292D0F8C02053F812
:10FDF00024405740D0F8C420564086EA0E06C1F38E
:10FE00000721754001F50071D0F8C86053F8211042
:10FE1000029A8CEA060C8CEA040C8CEA010CD0F8ED
:10FE2000CC108BEA0106564052465640F2B202F51B
:10FE30004072CCF3074453F82210C5F3074202F591
:10FE4000807204F5807453F822B053F82440039470
:10FE5000CCF30722C6F3072402F5007287EA0807ED
:10FE600004F5007487EA090753F8222053F824E0C8
:10FE70000292ECB2FAB2CDF810E002F540725FFAED
:10FE80008CFE04F540744FEA1C6C53F8222053F8A2
:10FE9000244053F82CC08CEA04044FEA176C4FEA54
:10FEA000166853F82CC053F828808CEA01014FEAF9
:10FEB000156CC6F3074653F82CA08AEA020AD0F85C
:10FEC000D0205140029A81EA0B015140D0F8D42051
:10FED0008AEA020A039A8AEA020A049AC5F3072503
:10FEE00006F5807605F5007CC7F307498AEA020526
:10FEF000C7F30727D0F8D82053F8266007F5007716
:10FF00000EF5407E5440744053F8276053F82E207D
:10FF100053F82C7009F580797440D0F8DC6053F800
:10FF200029E088EA0202724082EA0E027A40D6B2E2
:10FF300006F580764FEA146913F826C0C5F3074624
:10FF400006F5407609F5007953F8266053F82990B4
:10FF500006F47F080E0E06F500765FFA84FA53F871
:10FF6000266006F07F4648EA0608CEB206F580769F
:10FF70000AF5807A13F82670C4F3074606F5407632
:10FF8000C4F3072453F8266006F47F0E2E0E06F500
:10FF9000007609F07F4953F8266006F07F464EEA66
:10FFA000060EEEB2C5F307254FEA126B53F8255043
:10FFB00005F47F450295C2F3074505F54075C2F388
:10FFC000072253F8255053F8222005F47F0545EA0F
:10FFD000090553F8249013F82A40C1F3074A0BF59A
:10FFE000007B06F58076C1F307210AF5407A13F805
:10FFF000266053F8211053F82AA053F82B3002F44E
:020000041001E9
:100000007F4B009A0AF47F0A03F07F434AEA030316
:1000100000EB421A520109F47F4982588CEA020C23
:10002000DAF804205740DAF808205640DAF80C20B5
:100030005440029A01F47F418CEA090C87EA0B07CD
:100040004E40544001998CEA080C87EA0E076E4036
:100050005C409CFA8CFC3FBA36BA24BAC1F800C0A6
:100060004F608E60CC6007B0BDE8F08F2DE9F04F97
:1000700087B00D684C68D1F80890CE68CDE90032A1
:1000800003682DBA5D40436824BA5C40836899FADE
:1000900089F989EA0309C3685FFA84FC5FFA89F782
:1000A000EAB236BA5E400CF5407CE84B07F5407783
:1000B00002F54072F1B253F82C8053F827C053F880
:1000C000227001F540712A0E53F821E053F82210F6
:1000D000220E81EA080153F8222082EA0C024FEA3C
:1000E000196C029253F82CC08CEA0E0C4FEA166E73
:1000F00053F82EB08BEA070BC6F30747C6F3072663
:1001000006F5007607F5807753F826E053F827A028
:10011000C5F30746C5F3072506F5807605F5007596
:1001200053F8268053F82560C4F30745C4F3072429
:1001300004F5007405F5807553F8242003920269D4
:10014000029C53F8257051404269C9F30745C9F331
:100150000729544005F5807509F5007984EA0802FD
:1001600082EA0E0253F8255053F82990D0F818E08F
:10017000039C8CEA0E0C8CEA070C8CEA060CC66910
:100180008BEA060B8BEA050BD5B205F540758BEAB9
:10019000040453F82560C4F3074505F5807581EA2A
:1001A0000A0153F8257002975FFA8CF581EA09017C
:1001B00005F5407BE5B205F5407ECDB205F5407909
:1001C0000D0E4FEA1268C2F3074AC2F3072253F832
:1001D0002550CDF80CE002F500720592CCF307270C
:1001E000026A754007F500775540029A53F8277068
:1001F00055406F40039A53F8285053F82B804FEA2C
:100200001C6ECCF3074C0CF5807653F82EE0049668
:100210004FEA146C85EA080553F82280059A53F8D2
:100220002CC0C1F307460AF5807A06F580768EEA7F
:10023000080EC4F3072453F8298053F82A9053F882
:1002400022A0426A04F500748CEA080C53F8268058
:1002500053F82440049E554085EA0805C1F3072160
:10026000654001F50071846A53F8211053F8266047
:100270008EEA040E8EEA090E8EEA010EC16AEAB217
:100280008CEA010C8CEA060C02F540728CEA0A0C2E
:10029000C7F3074153F822A0CCF3074202F580725E
:1002A00001F5807153F8222053F821100391CCF30B
:1002B000072101F50071029253F82180CDF81080DA
:1002C0005FFA8CF101F540714FEA1C6C53F8214044
:1002D00053F82CB0C5F3074101F58071CEF3072226
:1002E00053F82180C7F3072101F5007102F5007270
:1002F00053F821C053F82260F9B23F0E5FFA8EF234
:1003000053F8277002F5407287EA0A0A2F0E53F855
:10031000222053F82770C5F3072587EA020905F55F
:1003200000724FEA1E6501F5407153F8257053F8CD
:1003300021106740046B8AEA040A029C8AEA040AD4
:10034000446B89EA0409039C89EA0409049C8BEA4A
:10035000010B89EA040553F82210846BC26BCEF3BB
:10036000074E0EF5807E67408BEA020BEAB253F827
:100370002E4087EA080702F5407287EA0C078BEAED
:10038000040B53F82240FAB202F540728BEA010BDB
:1003900053F822E05FFA8BF202F540728AEA060611
:1003A00053F82210F2B202F5407253F82280320E56
:1003B00053F8222054402A0E53F8222082EA0E02DB
:1003C0004FEA176E029253F82EE08EEA01014FEACF
:1003D0001B6E53F82EE08EEA0808CBF3074ECBF3E2
:1003E000072B0BF5007C0EF5807E53F82C2053F87C
:1003F0002EB00392C6F3074CC6F307260CF5807C9B
:1004000006F5007653F82C9053F826C0026CC5F31D
:10041000074606F58076544053F826E0029AC7F363
:100420000746C7F3072707F5007784EA0B0453F85C
:10043000277084EA070A476C039C7A40876C82EA3B
:100440000902C5F3072506F5807601E04CE40110AA
:10045000624005F5007581EA0704C76C53F8266011
:1004600053F8255088EA070184EA0E0484EA0C0454
:100470007140CAF3074C69400CF5807CCDF80CC084
:100480005FFA81FC0CF5407ED5B25FFA8AFC0CF570
:10049000407905F540754FEA1A6C53F8255053F82A
:1004A0002CB0CDF810E0E7B28BEA050B07F54077EA
:1004B000150EC1F3074653F8277053F8255006F57B
:1004C00080767D4053F82660076D02968BEA070B15
:1004D000029F8BEA070B476D7D40039FC4F30726FD
:1004E00053F827704FEA14684FEA116E06F500764C
:1004F000C1F3072101F5007153F82660C2F3074CE0
:100500007D40C2F3072253F82870DDF8108053F8BD
:10051000211053F8288053F82EE002F500724D4068
:100520000CF5807C53F82210826D53F82CC087EABA
:100530000807CAF3072A53F829800AF5007A5740BA
:10054000C4F30744C26D8EEA080E04F5807453F8B4
:100550002A8053F8244087EA0C078EEA020CEAB29C
:1005600002F5407287EA08078CEA040C53F822402F
:10057000FAB202F540728CEA010C53F822105FFACD
:100580008CF202F540728BEA060653F82280F2B232
:1005900002F5407253F822E0320E53F82220544004
:1005A0002A0E53F8222051403A0E53F8222082EAB4
:1005B00008024FEA1C68029253F82880026E88EA0B
:1005C0000E0ECCF30748CCF3072C08F580780CF519
:1005D000007C53F828B053F82C80C6F3074CC6F3C0
:1005E00007260CF5807C06F5007653F82C9053F81E
:1005F00026C0C5F3074606F58076544053F826A07A
:10060000029AC7F30746C7F3072707F5007784EA7E
:100610000B0453F827707C40476EC5F307257940DB
:1006200005F50075876E53F8255006F580767A40FB
:1006300053F82660C76E82EA0A0282EA0C0281EA57
:1006400009018EEA070C81EA08018CEA060C8CEAA3
:10065000050C5FFA81F85FFA82FEE5B2260E08F516
:1006600040780EF5407E05F5407553F8269053F816
:10067000286053F82E8053F825E00D0E5FFA8CF7B2
:1006800053F8255007F5407785EA08054FEA1268C8
:1006900053F8277053F8288088EA07074FEA1C6848
:1006A000C2F3074A53F82880C2F3072202F500720A
:1006B00088EA0E08CCF3074E53F8222002920EF57A
:1006C000807E026F53F82EB089EA06065640029AE1
:1006D000C4F3074E86EA0B065640CCF3072C426F54
:1006E0000EF5807E0CF5007C53F82EE053F82CC0FC
:1006F0005540826FC1F307490AF5807AC1F307219B
:1007000085EA0E05574001F50071C26F53F82AA023
:1007100053F8211085EA0C0C88EA020E5FFA8CF27D
:100720008EEA0A0E02F54072C4F3072409F58079B7
:100730008EEA010E04F5007453F8221053F8299044
:1007400053F82440CEF3074202F5807287EA090786
:10075000674053F822200292C7F3072202F5007285
:1007600053F82280CDF80C80FAB202F540725FFA9D
:1007700086F853F82240C6F3074202F5807208F566
:10078000407853F82290CDF81090CEF3072202F56E
:100790000072CCF3074953F822505FFA8EF24FEA09
:1007A0001E6ECDF814E04FEA166EC6F3072653F816
:1007B0002EB08BEA010B06F500714FEA1C6602F5BC
:1007C000407253F8266053F8222086EA040A3C0E51
:1007D000C7F3074753F8244084EA020ED0F880405C
:1007E0008BEA040B029C8BEA040B039C8BEA040645
:1007F000D0F884408AEA040A049C8AEA040AD0F801
:10080000884007F580728EEA0407DDF814E053F89B
:10081000284053F82EE009F580798EEA040453F855
:1008200029E087EA0E0753F822E053F82120CCF3A1
:10083000072C57400CF5007CD0F88C2053F82C1076
:100840008AEA050584EA020CEAB202F540728CEAF3
:100850000E0C53F82240FAB202F540728CEA010CF9
:1008600053F822105FFA8CF202F5407253F822809E
:10087000F2B202F5407253F822E0320E53F8222011
:1008800054402A0E53F8222051403A0E53F82220A9
:1008900082EA08024FEA1C68029253F8288088EA2C
:1008A0000E08CCF3074ECCF3072C0CF5007C0EF5AC
:1008B000807E53F82CA053F82EB0C6F3074CC6F335
:1008C00007260CF5807C06F5007653F82C9053F83B
:1008D00026C0C5F3074606F58076C5F3072505F55E
:1008E000007553F826E053F82550D0F89020C7F350
:1008F0000746C7F3072707F50077544053F82770DA
:10090000029A84EA0B047C40D0F894707940D0F8C5
:10091000987006F580767A40D0F89C7053F826607F
:1009200082EA0E0282EA0C0288EA070C8CEA060CC4
:100930008CEA050C009D81EA0901052D81EA0A0176
:1009400040F2EE81CDB205F54075C2F3074A53F887
:100950002560D5B205F54075C1F3074953F82580E8
:100960005FFA8CF505F540750AF5807A53F8257025
:1009700053F82AA0E5B205F5407509F5807953F8DA
:1009800025E053F82990250E53F825506E400D0EA2
:10099000C1F3072153F8255085EA08054FEA12688C
:1009A000C2F3072253F8288088EA07074FEA1C6839
:1009B00002F5007253F8288053F82220029288EA48
:1009C0000E08CCF3074E0EF5807ED0F8A02053F829
:1009D0002EB05640029AC4F3074E86EA0B065640E4
:1009E000CCF3072CD0F8A4200EF5807E0CF5007C0B
:1009F00053F82EE053F82CC05540D0F8A82085EAD3
:100A00000E05574001F50071D0F8AC2053F82110C5
:100A100085EA0C05C4F3072488EA020CEAB28CEAE2
:100A20000A0C02F5407204F500748CEA010C53F8CC
:100A300022E053F82440CCF3074287EA090702F585
:100A40008072674053F82240C7F3072202F5007214
:100A50004FEA166853F8229053F82880FAB202F54C
:100A600040724FEA1C6A53F82210C6F3074202F59F
:100A7000807288EA0E0853F822B0CCF3072202F500
:100A800000724FEA156E53F8222002925FFA8CF240
:100A900002F540725FFA86FCC6F3072606F500767B
:100AA00053F82220039653F82EE08EEA01014FEA14
:100AB000176E0CF5407C53F82EE053F82CC08EEAEC
:100AC0000206D0F8B02088EA0208D0F8B420C5F3B6
:100AD000074E5140029A0EF5807E81EA0B0151408B
:100AE000D0F8B82053F82EE0564086EA0E02039E56
:100AF000C5F3072553F8266005F5007588EA040854
:100B0000C7F3074788EA090453F82A9007F5807766
:100B1000724053F82560D0F8BC5053F8277089EA2A
:100B20000C0C8CEA050C009D8CEA070C062D8CEA57
:100B3000060C00F0F580CDB205F54075C2F3074A0A
:100B400053F82560D5B205F54075C1F3074953F850
:100B500025805FFA8CF505F540750AF5807A53F823
:100B6000257053F82AA0E5B205F5407509F580799E
:100B700053F825E053F82990250E53F825506E4080
:100B80000D0EC1F3072153F8255085EA08054FEAF9
:100B90001268C2F3072253F8288088EA07074FEA51
:100BA0001C6802F5007253F8288053F82220029244
:100BB00088EA0E08CCF3074E0EF5807ED0F8C020F0
:100BC00053F82EB05640029AC4F3074E86EA0B063D
:100BD0005640CCF3072CD0F8C4200EF5807E0CF5DF
:100BE000007C53F82EE053F82CC05540D0F8C820B4
:100BF00085EA0E05574001F50071D0F8CC2053F876
:100C0000211085EA0C05C4F3072488EA020CEAB235
:100C10008CEA0A0C02F5407204F500748CEA010CAF
:100C200053F822E053F82440CCF3074287EA09073F
:100C300002F58072674053F82240C7F3072202F59D
:100C400000724FEA166853F8229053F82880FAB2DF
:100C500002F540724FEA1C6A53F82210C6F30742AD
:100C600002F5807288EA0E0853F822B0CCF307220E
:100C700002F500724FEA156E53F8222002925FFAD5
:100C80008CF202F540725FFA86FCC6F3072606F581
:100C9000007653F82220039653F82EE08EEA0101E5
:100CA0004FEA176E0CF5407C53F82EE053F82CC039
:100CB0008EEA0206D0F8D02088EA0208D0F8D420C4
:100CC000C5F3074E5140029A0EF5807E81EA0B0172
:100CD0005140D0F8D82053F82EE05640C7F30747CC
:100CE000C5F3072586EA0E0207F58077039E53F8C1
:100CF000277053F8266005F5007588EA040888EA2D
:100D0000090453F82A9053F82550D0F8DC3089EACA
:100D10000C0C8CEA030C8CEA070C72408CEA050C74
:100D2000314B250ECEB25D5D9E5D46EA05660D0E29
:100D30005FFA8CFE5F5D13F80EE0D5B25D5D45EAAB
:100D40000765170EDF5D4EEA076E4FEA1C6713F862
:100D50000780E7B2DF5D47EA0867CCF30748CCF3CA
:100D6000072C13F8088013F80CC046EA0846C4F3B1
:100D70000748C4F3072413F8088045EA084545EA04
:100D80000C2513F804C0C1F30744C1F307211C5D0F
:100D90004EEA044444EA0C2413F801C0C2F30741AC
:100DA000C2F30722595C9B5C009A46EA032300EBDE
:100DB0004216520147EA014182585340726885EA5F
:100DC0000200B268019D6240F46841EA0C211BBA3E
:100DD0002B6081EA040300BA12BA1BBA6860AA60E9
:100DE000EB6007B0BDE8F08F4CE30110002800F085
:100DF00048822DE9F04FA2F11006102E85B017465B
:100E000000F23C82C24DF540EC0740F13782960873
:100E1000B51D88460446C0F8F420C0F8F050002BF9
:100E200078D0D3F800E0D3F804C09D68DB68C0F840
:100E30000431C0F8F8E0C0F8FCC0C0F8005105F07B
:100E4000E5FB254604EB86062346186800BA43F8FE
:100E5000040B9E42F9D141463A46204605F0D6FBA6
:100E60002346196809BA43F8041B9E42F9D1182F8A
:100E700000F0BC81202F00F03F81DFF898E2266867
:100E8000E168A54BD4E9017C0EF12808204600E07A
:100E90001030CAB24FEA116909F5807953F822205F
:100EA00013F8299002F47F4242EA0902C1F307498C
:100EB00009F5007953F8299009F07F4982EA09027F
:100EC000C1F3072909F5407953F8299009F47F09FE
:100ED00082EA09025EF8049B82EA090256407740E2
:100EE0008CEA070C81EA0C01F045C0E90467C0E90F
:100EF00006C1CDD10E9A0020012A8DF80C008DF884
:100F00000D008DF80E008DF80F000ED0002005B0FA
:100F1000BDE8F08FC0F8F830C0F8FC30C0F8003100
:100F2000C0F8043105F072FB8BE7D4F8F0205FEADB
:100F3000820C1DD004EB021221460F6816680E6069
:100F400017604F6856684E6057608E6897688F606C
:100F50009660CE68D768CF600430D660ACEB0006F0
:100F6000B04201F11001A2F11002E6D3D4F8F02052
:100F70000021012A8DF80C108DF80D108DF80E103F
:100F80008DF80F10C2D9654A01272E695FFA86FCD9
:100F9000C6F307490CF5807C310E09F5807913F80A
:100FA0002CC013F829A001F58071C6F3072606F5B9
:100FB000807613F8211013F8269052F821800CF552
:100FC000407C0AF58076D5E9050152F82CC052F82C
:100FD000266009F5007988EA0C0888EA06065FFAB7
:100FE00080FC52F829800CF5807C86EA08064FEADE
:100FF00010692E6113F82CC0C0F3074609F58079FB
:1010000006F58076C0F3072013F829A013F82660B0
:101010000CF5407C00F5807052F82CE013F820901D
:1010200052F82A0006F5807680EA0E0009F5007E67
:1010300052F8268052F82EE05FFA81FC80EA080020
:10104000C1F3074680EA0E000CF5807C686106F566
:101050008076080E13F82CC013F82660C1F3072120
:1010600000F5807001F5807113F8200013F821104D
:1010700052F820000CF5407C06F5807652F82CC022
:1010800052F8266001F5007180EA0C0052F8211038
:101090007040EE694840310E01F58071A86113F887
:1010A0002100F1B201F58071013713F821C052F827
:1010B00020100CF5407C103552F82C00C6F3074C7C
:1010C0000CF5807C4840C6F3072101F5807113F8C8
:1010D0002CC013F821600CF5807106F5007652F8EB
:1010E0002110414052F826004140E960D4F8F01048
:1010F0008F42FFF44AAF09E7DFF82480A368019329
:10110000D4E900ECE068044B08F11C09224636E003
:10111000010101004C0402104CF401104CE40110D8
:1011200048040210C0F3074707F54077566953F8A3
:10113000277007F47F0AC0F3072753F8277007F4D6
:101140007F474AEA070A070E07F5007753F827702A
:1011500007F07F4BC7B207F5807713F827704BEA8B
:10116000070B17698AEA070A8AEA0B0717637740B1
:101170009669576377407940C2E90E712032D16990
:1011800058F804AF019ECFB24FEA116B0BF5807B8C
:1011900053F8277013F82BB007F47F4747EA0B0783
:1011A00087EA0A07C1F3074A0AF5007AC14553F8EE
:1011B0002AA00AF07F4A87EA0A07C1F3072A0AF53C
:1011C000407A53F82AA00AF47F0A87EA0A078EEACF
:1011D000070E8CEA0E0C86EA0C0680EA0600C2E9CD
:1011E00008ECC2E90A6001969CD183E6DFF898809A
:1011F000D4F800C06668254BD4E9027E08F12009C6
:10120000204606E001698EEA01014A40C0E90A125F
:101210001830426958F804AFD1B24FEA126B0BF59F
:10122000807B53F8211013F82BB001F47F4141EA81
:101230000B0181EA0A01C2F3074A0AF5007AC145A7
:1012400053F82AA00AF07F4A81EA0A01C2F3072A6A
:101250000AF5407A53F82AA00AF47F0A81EA0A01C3
:101260008CEA010C86EA0C0687EA06078EEA070E6E
:10127000C0E906C6C0E9087EC4D13BE66FF0AC0009
:1012800045E66FF0AC007047480402104CF40110C2
:1012900010B4019C28B1F02A03D8019410BCFFF7C8
:1012A000A5BD6FF0AC0010BC704700BF00286CD02B
:1012B0002DE9F8430E46002964D0002A62D0DBB342
:1012C0001B0939D002F1100401EB031700F1F809F2
:1012D00000F2071500F00308A4F1100389EA0302E5
:1012E000920737D14946B8F1000F28D013F8012BE7
:1012F00011F801CBA34282EA0C0201F8012CF5D1CE
:10130000D0F8F0305B085A1E062A37D84A464946BC
:10131000FDF7BAFFD9F80010D9F80420D9F8083041
:10132000D9F80CC0C6F80CC031607260B3601036DA
:10133000BE4204F11004CFD10020BDE8F88353F879
:1013400004CB51F8042BA34282EA0C0241F8042C8E
:10135000F5D1D5E700F1F703A4F1110213F801CF9D
:1013600012F8011F9D428CEA010C83F800C0F5D1F0
:10137000D0F8F0305B085A1E062AC7D96FF0E1009A
:10138000BDE8F8836FF0AC00D7E76FF0AC007047B2
:1013900000286BD0002969D02DE9F0471646002AB5
:1013A00067D0002B41D01C074FEA131261D1E2B382
:1013B000814601F10F0506EB021800F5847400F177
:1013C000F8077268B3683168F068E06062602160B5
:1013D000A360D9F8F0305B085A1E062AA5F10F0A5F
:1013E00040D8524631464846FEF740FE87EA0A0397
:1013F0009B0728D11AF0030F3A4619D012F8013B87
:101400001AF8011B944283EA01030AF8013CF5D162
:10141000103620686168A268E368FB604645386062
:101420007960BA6005F11005CBD10020BDE8F087E6
:1014300052F8041B5AF8043B944283EA01034AF829
:10144000043CF5D1E4E7A5F1100309F1F70213F824
:1014500001CF12F8011FAB428CEA010C83F800C0E7
:10146000F5D1D5E76FF0E100BDE8F0876FF0AC0093
:1014700070476FF0AC00D9E710B590F81431042B29
:10148000044614D0062B0CD0032B05D1402200F1CA
:10149000700100F06FFD18B9012384F815310020A8
:1014A00010BD402200F1700102F098F8F3E74022ED
:1014B00000F1700101F092FDEDE700BF042938B59D
:1014C0000546144613D0062909D0032917D16FF019
:1014D0000102214600F02EFDC5F8104138BD6FF025
:1014E0000102214602F04CF8C5F8104138BD6FF0FA
:1014F0000102214601F04EFDC5F8104138BD6FF0E4
:10150000AC00C5F8104138BDA0B370B50D46164605
:10151000044619B394F8153183B194F81431042BAF
:1015200015D0062B03D0032B1DD0002070BD3246F2
:1015300029462046BDE8704002F050B82046FFF72B
:101540009BFF0028F2D194F81431042BE9D13246E4
:1015500029462046BDE8704001F040BD002AD9D0A0
:101560006FF0AC0070BD324629462046BDE87040A1
:1015700000F000BD6FF0AC00704700BF002871D0D4
:1015800070B50D4659B190F81531044653B394F82F
:101590001431042B2ED0062B04D0032B46D06FF031
:1015A000AC0070BD04F1F0063146204602F09CF814
:1015B0000028F6D1402204F1B001204602F00EF8D6
:1015C0000028EED120223146204602F007F80028FC
:1015D000E7D12946204602F087F80028E1D184F8B7
:1015E000150170BDFFF748FF0028DAD194F81431D7
:1015F000042BD0D104F1F0063146204601F08EFDD7
:101600000028CED1402204F1B001204601F0E6FCD2
:101610000028C6D114223146204601F0DFFC002804
:10162000BFD12946204601F079FDD6E704F1F00646
:101630003146204600F020FD0028B2D1402204F1BE
:10164000B001204600F096FC0028AAD110223146B5
:10165000204600F08FFC0028A3D12946204600F048
:101660000BFDBAE76FF0AC00704700BF58B138B55A
:1016700004460D464FF4B072002104F04DF80020EE
:10168000C4F8105138BD6FF0AC007047D0B190F87D
:101690001431042B10B5044611D0062B0CD0032BAB
:1016A00001D100F045FD04F5B0710022234601345C
:1016B0008C421A70FAD110BD02F0E2F8F3E701F0A3
:1016C000BFFDF0E7704700BF2DE9F041002846D08C
:1016D0000C4690461F460546002A49D0E31E052BBE
:1016E00039D895F81431D5F81061EBBB0023324698
:1016F00085F81441214685F815312846FFF7DEFEAE
:10170000064628BB069B0BB90D2F72D995F81431EC
:10171000042B05F170042ED0062B48D0032B1ED1CC
:10172000402F34D8B8F1000F04D041463A46204645
:1017300004F06CFF402F4CD12346B0351A6882F07C
:101740005C3182F03632196443F8042B9D42F5D1A6
:101750003046BDE8F081A4F10A03032BC1D96FF034
:10176000AC063046BDE8F0812846FFF78FFFBDE7A5
:10177000002BB3D0F3E7402FD4D93A464146284650
:1017800001F02CFC60B306463046BDE8F0813A46D5
:101790004146284600F0EEFB0028F4D121462846B9
:1017A00000F06AFC034638BB3022102713E0402FBC
:1017B000B8D93A464146284601F010FF0028E2D148
:1017C0002146284601F090FF0346A8B920273A4653
:1017D00001E0C7F14002E019002103F09DFFABE7F3
:1017E0002146284601F09AFC034628B92C221427EA
:1017F000F1E76FF0C706ABE71E46A9E710B582B068
:1018000001240094FFF760FF02B010BDC36CE94AE9
:101810002DE9F04F1A44D0E91534076DD1F800B026
:10182000466D4D68D1F814E0D1F81880D1F81CA0AD
:10183000D1F8209063403B405A4463401344DE4A51
:10184000224407EB73632C462A4487EA06051D40B1
:1018500075401544D94A8DB032448E68019603EB29
:101860003555324487EA03062E400A977E401644D7
:10187000D34F0A9ACDF810E01744CA68029205EBDC
:10188000F636174483EA050232405A403A440F695B
:10189000CDF81480BC46CB4FCDF80CC0674406EBA6
:1018A000B2221F4485EA060313406B403B44C64FF7
:1018B000CDF81890774402EB73632F4486EA020553
:1018C0001D4075403D44C14F474403EB35553744F7
:1018D00082EA03062E4056403E44BD4FD1F8308088
:1018E000574405EBF636174483EA050232405A4066
:1018F0003A44B84F4F4406EBB2221F4485EA060330
:1019000013406B403B444F6ABC46B34FCDF81CC0FC
:10191000674402EB73633D4486EA02071F40774049
:101920002F448D6AA5F5244E03EB375782EA030C4A
:10193000AEF14F0EB6440CEA070CCE6A8CEA020CEC
:10194000F444B646A54ECDF820E0764407EBFC3CC7
:10195000164483EA070202EA0C025A403244A04EBF
:10196000DFF880E246440CEBB2221E4487EA0C0307
:1019700013407B4033444E6BB64402EB73637744B1
:101980008CEA020E0EEA030E8EEA0C0EBE44D1E97A
:101990000E9795490994494403EB3E5E614482EAFF
:1019A000030C0CEA0E0C8CEA020C8C448F49CDF827
:1019B0002CB039440EEBFC3C114483EA0E0202EADF
:1019C0000C025A400A448A490CEBB22221441944C1
:1019D0008CEA020303EA0E0383EA0C03059C0B4422
:1019E000844902EBF36321448E4482EA030101EA55
:1019F0000C015140089C7144DFF8FCE103EBF1510C
:101A0000A644E64483EA010C0CEA020C8CEA030CBF
:101A1000F444DFF8E8E1079C01EBBC4CDE4496445B
:101A200081EA0C021A404A40DDF810B07244DFF837
:101A3000D0E10CEB3232DE449E448CEA02030B40D0
:101A400083EA0C037344DFF8BCE1DDF80CB002EB71
:101A5000F363AE448E4482EA030101EA0C01514073
:101A60007144DFF8A4E103EBF151BE44E64483EA9C
:101A7000010C0CEA020C8CEA030CF444DFF88CE154
:101A800001EBBC4CDE44964481EA0C021A404A4009
:101A90007244DFF87CE1DFF87CB10CEB3232A64413
:101AA0009E448CEA02030B4083EA0C037344DFF884
:101AB00068E1029C02EBF363CE448E4482EA0301A8
:101AC00001EA0C0151407144DFF850E103EBF151A0
:101AD000A644E64483EA010C0CEA020C8CEA030CEF
:101AE000069CF444DFF838E101EBBC4CA644964474
:101AF00081EA0C021A404A407244DFF828E1019C56
:101B00000CEB3232B6449E448CEA02030B4083EA6B
:101B10000C037344DFF810E102EBF363A6448E4438
:101B200082EA030101EA0C0151407144DFF8FCE054
:101B3000099C03EBF151D644E64483EA010C0CEA1C
:101B4000020C8CEA030CF44401EBBC4CC3449344F8
:101B500081EA0C0202EA030E8EEA010EDE440CEB6F
:101B60003E3E82EA0E0B049AA2F5B822A2F2BE62B1
:101B70001A445A442E4BDDF818B05B440EEB327217
:101B800019448CEA0E035340DDF820B00B44294978
:101B9000594402EB735361448EEA020C8CEA030C45
:101BA0008C442549DDF80CB0494403EB3C4C8E4491
:101BB00044E000BF78A46AD756B7C7E8DB7020249A
:101BC000EECEBDC1AF0F7CF52AC68747134630A8BD
:101BD000019546FDD8988069AFF7448BBED75C89E4
:101BE0002211906B937198FD8E4379A62108B44918
:101BF00062251EF640B340C0515A5E26AAC7B6E918
:101C00005D102FD65314440281E6A1D8C8FBD3E758
:101C1000E6CDE1218A4C2A8DD60737C3870DD5F44E
:101C2000ED145A4505E9E3A9F8A3EFFCD9026F6763
:101C300081F6718722619D6D0C38E5FD82EA030112
:101C400081EA0C017144DFF880E2A6440CEB7121BB
:101C5000964483EA0C024A407244DFF870E2029C28
:101C6000DE4401EB327273448CEA010E8EEA020EFE
:101C70009E44974BDDF82CB0534402EB7E5E9C44AF
:101C800081EA020383EA0E036344DFF848C2AC44EE
:101C90000EEB3343614482EA0E0C8CEA030C8C4455
:101CA0008D49314403EB7C2C11448EEA030282EA15
:101CB0000C020A44894959440CEB32728E4483EA7F
:101CC0000C0151407144DFF818E2A64402EB715157
:101CD0009E448CEA02034B40059C7344DFF804E207
:101CE000A64401EB3343E64482EA010C8CEA030C80
:101CF000079CF444DFF8F0E1A64403EB7C2C964407
:101D000081EA030282EA0C027244DFF8E0E1019CFE
:101D1000C6440CEB32728E4483EA0C01514071448C
:101D2000DFF8CCE1BE4402EB715173448CEA020E41
:101D30008EEA010E9E446F4B234401EB3E4E9C44C1
:101D400082EA010383EA0E036344DFF8ACC1099C15
:101D50000EEB7323DC44944463EA010282EA0E0230
:101D60006244DFF898C1DDF80CB003EBB262D444F2
:101D70008C4462EA0E0159406144DFF884C102EBF1
:101D8000B151CC44F44461EA030E8EEA020EDDF850
:101D90001090F444DFF86CE101EB7C4CCE449E449F
:101DA0006CEA02034B407344DFF85CE10CEBF32375
:101DB000C644964463EA010282EA0C02DDF8088018
:101DC0007244A5F58015DFF844E103EBB262A5F695
:101DD00083356544C64462EA0C0C8E448CEA030CDD
:101DE000F44402EBBC5C6CEA030151402944484DC9
:101DF000DDF818E0DDF814800CEB714125441D443A
:101E000061EA020383EA0C032B44424D019C01EB7F
:101E1000F3237544154463EA0C024A402A443E4DBC
:101E200003EBB2623D4462EA01075F4065443D4412
:101E30003A4F02EBB55547440F4465EA0301514060
:101E40003944374F05EB7141374461EA02061F44BC
:101E50006E40344B3E4401EBF6265B441A4466EA7E
:101E600005034B401344C26CDDF820B006EBB363AE
:101E70001A44C2642C4A5A44154463EA010272406F
:101E80002A44856D03EBB25215448565274D2544E0
:101E90000D4462EA06015940294402EB714161EAAE
:101EA00003030A9C5340426DDDF81CC00C441144EE
:101EB0001F4A416562443244134404EBF324046531
:101EC00000200DB0BDE8F08F44EABEA4A9CFDE4BE0
:101ED000604BBBF670BCBFBEC67E9B28FA27A1EA4A
:101EE0008530EFD4051D880439D0D4D9E599DBE6D7
:101EF000F87CA21F6556ACC4442229F497FF2A43FC
:101F0000A72394AB39A093FCC3595B6592CC0C8F8B
:101F1000D15D84854F7EA86FE0E62CFE144301A3BB
:101F2000A111084E827E53F735F23ABDBBD2D72AB3
:101F300091D386EBA8B10C4A10B4C26402F12942D5
:101F40000A4CC165A2F5961209490023A2F68B62DC
:101F5000C0E91441C0E900338265836010BC1846B3
:101F600070476FF0AC0070470123456789ABCDEF38
:101F7000FEDCBA982DE9F843002876D00C4690464E
:101F8000054600294FD000683F2871D86B68D318E8
:101F90006B602ED205F10C0690BBB8F13F0F57D9FC
:101FA000A8F1400727F03F07403727442346314632
:101FB00004F1400ED3F800C05C689868DA68CA6023
:101FC00010337345C1F800C04C60886001F1100106
:101FD000F0D1314628461C46FFF718FCBC4281462A
:101FE000E4D108F03F08B8F1000F27D14846BDE81A
:101FF000F883AB680133AB6005F10C060028CCD048
:10200000C0F14007474528BF474630443A4621467D
:1020100004F0FCFA2B683B44402B2B601CD03C4462
:10202000A8EB0708B9E702BB03683F2B8CBF6FF032
:1020300083094FF000094846BDE8F8833946304629
:10204000424604F0E3FAC5F800804846BDE8F8834C
:1020500027464FF00009C6E731462846FFF7D6FB72
:1020600081460028C2D12860D9E76FF0AC09BDE7EE
:102070006FF08309BAE700BF00284DD070B50D4658
:10208000002946D00646044656F80C3B3F2B3DD867
:102090005A1C02608022F2540368382B08D93F2B67
:1020A0002DD931462046FFF7B1FB3822304602E0F9
:1020B000F018C3F13802002103F02EFBD4E90130FF
:1020C0005A0F02EBC002DB0031466364A264204673
:1020D000FFF79CFBE16C636D226DA06D2960AB6026
:1020E0000F49104BE8606A60C4E913130E4A0F4BA6
:1020F0000020C4E91523C4E90000A06070BDC3F14D
:102100004002F018002103F007FBCAE76FF08300DC
:1021100070BD6FF0AC0070BD6FF0AC00704700BFD9
:102120000123456789ABCDEFFEDCBA9876543210B7
:10213000704700BF2DE9F04FD0E9146CD1E900459C
:1021400097B0F04B876DC26DD0F84C8015909646D5
:102150008CEA0700E2187244304002EBF8627840E3
:102160001044B246E3468CEAB602464632405E462A
:102170007240EE18C4463E444FEABC0932448E68B1
:10218000139789EABA0784EA06080740F418CDF8DD
:1021900050E05C44D1F80CE0CDF840C087EABA07C3
:1021A00002EBF062274489EAB0040EEB030C144002
:1021B000CDF844A00CEBBA0C84EA0904D1F814A0C1
:1021C000CDF848B007EBF26764444FEAB202D1F8A9
:1021D00010C08EEA0A0B85EA0E0582EAB00ECDF831
:1021E00004B00EEA070E0CEB030BCB448EEAB00EE4
:1021F000DE440AEB030B0BEBB00B886904EBF764CE
:1022000086EA0C0682EAB7098CEA000CCDF808C011
:1022100009EA0409D1F81CC00EEBF46E89EA020940
:102220004FEAB4048AEA0C0AD94484EAB70BCDF821
:1022300010A00BEA0E0B00EB030A92448BEAB70BDB
:1022400009EBFE6984EABE02D3440CEB030A0AEBF5
:10225000B70A02EA09020F6A6240524488EA070A92
:1022600080EA0708486ACDF814800BEBF96B45400B
:102270004FEAB909009589EABE058CEA000805EA2B
:102280000B0507EB030CA44485EABE0502EBFB62D9
:10229000654489EABB0CCDF81880C418D1F82880B1
:1022A0000CEA020C04EBBE048CEA090CA44486EA96
:1022B00008040394CE6A019C05EBF26584EA060EDD
:1022C0004FEAB20280EA0604089482EABB0408EBF3
:1022D00003002C40484484EABB040CEBF56C044436
:1022E00082EAB50006EB030900EA0C0009EBBB0922
:1022F00050404844D1F83090DDF808B004EBFC645D
:102300004FEABC0CCDF804C087EA080788EA090C3C
:10231000D1F83480CDF824C08AEA080A8EEAFA7C23
:10232000DDF810E0CDF808A08EEA080ADDF808E034
:10233000CDF82CC087EAFE770797019F86EA08064A
:1023400086EAFC7687EAB50E0A960EEA040E09EBD9
:10235000030600EBF46016448EEAB50E87EAB40279
:10236000B644024008EB030606EBB5067A40324459
:10237000D1E90E760399009D71408AEAF17ACDF891
:102380000CA0DDF814A08AEA070A8AEAFC7CDDF8D2
:1023900018A0CDF830C07D408BEA090B8BEAF57BA5
:1023A0008AEA060A8AEAFB7A0495CDF814A0079D0A
:1023B000DDF80CA085EAFA7ACDF818A0049DDDF8C6
:1023C00020A08AEAF57A8AEAFC7CDDF824A0CDF820
:1023D0001CC0DDF814C00A9D8AEAF17A8AEAFC7A08
:1023E000DDF818C085EAFC7CCDF820C089EA070931
:1023F000DDF81CC089EAFB7989EAFC794D46DDF8F5
:102400000C90DDF804C088EA060888EAF9780EEB3B
:10241000F06E88EAFA784FEAB000CDF8008080EAE2
:10242000B40807EB030908EA0E08E14488EAB40897
:10243000C844DDF80890DDF830C0029587EAF977E6
:1024400087EAFC77DDF820C087EAFC77099702EB82
:10245000FE6280EABE0706EB030C17400CEBB40CDF
:1024600047406744DDF810C0059C86EAFC7686EAA2
:10247000F47608EBF26886EAF5744FEAB2020A9441
:1024800082EABE0403EBF97604EA0804064484EA0F
:10249000BE0407EBF86782EAB800344404EBF76443
:1024A00003EBFC7638404FEAB70706EBBE06504018
:1024B000654687EAB80C30440CEA040C03EBF1766D
:1024C000DDF818E08CEAB80C16444FEAF1710B9A6B
:1024D000664481EAF97C03EBF2738CEAFE7C4FEAF6
:1024E000F272DDF81CE0DDF8249082EAF57503EB6A
:1024F000B80385EAFE75DDF80080DDF830E085EA96
:10250000F97901E09979825A81EAFB710A9D8CEA96
:10251000F87C81EAFA71DDF80C8081EAF571089D9A
:10252000039182EAF87282EAF57282EAFC7200EBA9
:10253000F4600B9287EAB40202407A401A44F24BEC
:1025400006EBF0664FEAB00080EAB40503EBFB71DE
:102550003944754002EBF66203EBF8770D4480EAEC
:10256000B60105EBF265514007EBB4074FEAB20242
:10257000CC1982EAB60103EBFE7707446940704646
:1025800039444FEAF070029FDDF814E080EAFB7BEB
:102590008BEAF77B8BEAF977DDF818B00497099F8F
:1025A00080EAFB7080EAF7700B9F80EAF77004EB1B
:1025B000F564069003EBFE7782EAB50007EBB607F9
:1025C0006040384477464FEAF77787EAF876DDF8D7
:1025D000008086EAF876DDF80C80DDF81CE086EAFB
:1025E000F876DDF8288087EAFE7787EAF877DDF865
:1025F000108001EBF46187EAF8774FEAB40405979D
:1026000003EBFB7884EAB50790444F4000EBF160A0
:1026100084EAB102474403EBFE7807EBF0674240DF
:1026200008EBB5084FEAB00002EB080580EAB102FA
:1026300003EBFA784FEAFA7AA0447A408AEAFB740C
:10264000DDF808B04244DDF80C808AEAFB7A8AEAB9
:10265000F87ADDF81480DDF820B08AEAF87ACDF84F
:102660001CA005EBF76580EAB70803EBFB7A0AEBE1
:10267000B10A88EA0508D0444FEAFB7A8AEAFE717B
:10268000DDF818B081EAF97181EAFB7101910099D6
:10269000DDF82CB08AEAF17A8AEAFB7A84EAFC74E3
:1026A000DDF808B002EBF56284EAF6744FEAB5058E
:1026B0008AEAF47E03EBFB7B85EAB70A83448AEA65
:1026C000020A08EBF26885EAB200DA4403EBF17B18
:1026D0000999CDF834E00AEBF86A80EA08000BEBC0
:1026E000B70B4FEAB80800EB0B0788EAB20003EB20
:1026F000F17BAB4480EA0A005844DDF808B04FEAA9
:10270000F175049985EAFB7B8BEAF17B01998BEAF1
:10271000F17BCDF820B0DDF818B085EAFC7585EACC
:10272000FB7585EAFE75DDF828E0099507EBFA6789
:1027300088EABA0503EBFE7B7D400BEBB20B05EBA1
:102740000B02009D4FEAFE7B8BEAF575DDF81CE07D
:1027500085EAF67585EAFE752946059D8BEAF97BC3
:102760008BEAF57B089D00EBF7604FEAB7078BEA31
:10277000F57E87EABA0B03EBFC7545448BEA000B48
:1027800002EBF062AB4487EAB0050BEBF26B4FEA69
:10279000B208554003EBF97202EBBA02DDF80CA067
:1027A000CDF838E003EBFA7ABA44039F4FEAF777A3
:1027B000154487EAFC7C88EAB0028CEAF47C82EA61
:1027C0000B0252448CEAF17ADDF810C087EAFC77FC
:1027D000DDF81CC087EAFC7787EAFE770C97DDF806
:1027E0002CE0009105EBFB6588EABB0703EBFE7C60
:1027F0000CEBB00C6F40704667444FEAF070DDF8A8
:1028000004C0DDF834E080EAF97989EAFC7980EAED
:10281000F670DDF824C080EAFE70DDF810E002EB0F
:10282000F56289EAFC7C4FEAB505CDF828C080EA5C
:10283000FA7985EABB0C03EBFE7040448CEA020C8B
:10284000844403EBF67007EBF26785EAB20800EB0D
:10285000BB00DDF818B0CDF82C900CEBF76C88EAD3
:1028600007084FEAB70787EAB209804403EBFB7019
:1028700089EA0C0928444844DDF8149003EBF97305
:1028800003EBB2035A464FEAF2724D46DDF8209050
:10289000DDF828B082EAFE7E4FEAF5758EEAF97E11
:1028A0008EEAFB7985EAF676DDF830B0DDF824E0D3
:1028B00086EAF17686EAFB7B82EAF4720B9E019946
:1028C000CDF808B082EAFE7282EAF67204920E9A9D
:1028D00085EAF17585EAF27585EAF97508EBFC6819
:1028E000294687EABC0500EBF86085EA0805074A37
:1028F0000F911D4440EAB80303EABC0300EAB80E96
:1029000043EA0E0E04E000BFA1EBD96EDCBC1B8FC6
:1029100002EBF47305EBF0653B449E4445EAB003DB
:1029200003EAB80305EAB0061E43019B02EBF3730A
:102930000EEBF56E03EBBC031E44DDF81CC04EEA43
:10294000B50303EAB0030EEAB5071F4302EBFC73BD
:1029500003EBB8031F4463464FEAF37383EAF4744E
:1029600084EAFA7484EAFB7B089CDDF830C0DDF869
:10297000348083EAF47383EAFC7306EBFE6683EA31
:10298000F173059346EABE0303EAB50306EABE0CFB
:1029900043EA0C0C02EBF87303EBB0039C44434690
:1029A0004FEAF370019BDDF8008080EAF3710A9B27
:1029B00081EAF371049B81EAF3730B9980EAF87062
:1029C00080EAF17007EBF66780EAFB71069147EA4F
:1029D000B60101EABE0107EAB60841EA080802EBBF
:1029E000F4710CEBF76C01EBB5018844009D4CEAE7
:1029F000B70101EAB6010CEAB700084302EBF57132
:102A000008EBFC6801EBBE010844DDF824E048EA6D
:102A1000BC0101EAB70108EABC050D4302EBFE71F7
:102A200001EBB6010D447146049EDDF818E04FEA53
:102A3000F17181EAF47481EAFA7184EAF97481EA45
:102A4000F67100EBF86084EAF37481EAFE71019498
:102A500003910E9CDDF800E040EAB80101EABC01F8
:102A600000EAB8060E4302EBF47101EBB7010E4425
:102A7000029F4FEAF47181EAFE74DDF814E084EA03
:102A8000F77484EAFE7ECDF800E0DDF828E00F9CC4
:102A900081EAFE7181EAF471019C05EBF06581EA3F
:102AA000F47745EAB00101EAB80105EAB00406EBA3
:102AB000F5660C4302EBFA71079701EBBC0146EA9D
:102AC000B50707EAB0070C4406EAB501394302EB43
:102AD000FE7704EBF66407EBB8073944DDF8308085
:102AE00044EAB607F44607EAB50704EAB60E47EA31
:102AF0000E0E02EBF87707EBB00740464FEAF07096
:102B0000DDF8008080EAFA7A8AEAFB7A8AEAF87AC3
:102B1000BE44059FCDF820A001EBF461DDF81CA0B8
:102B2000DDF82C8080EAF97080EAF77041EAB4079A
:102B300080EAFA7A07EAB60701EAB400384302EB02
:102B4000F87707EBB50745464FEAF575384485EA4F
:102B5000FC77DDF80CC0DDF8088087EAF37787EAB8
:102B6000FC7CCDF824C0DDF818C0089F85EAF87514
:102B70000EEBF16E85EAFC7585EAF7754EEAB10752
:102B800007EAB4070EEAB10C00EBFE6047EA0C0C52
:102B900002EBF97707EBB60740EABE0606EAB10694
:102BA000BC4400EABE07374302EBF8760CEBF06C4E
:102BB00006EBB406DDF8108037444CEAB00606EAAE
:102BC000BE060CEAB004344302EBF87606EBB1061D
:102BD00041464FEAF171344481EAF976DDF8049018
:102BE00086EAF976DDF8249086EAF9760496039E63
:102BF00081EAFB7181EAF67107EBFC6781EAF57106
:102C00000A9147EABC08DDF83C90009E08EAB0084B
:102C100007EABC0148EA010102EBF97808EBBE08BB
:102C20004144DDF808804FEAF97E8EEAF87888EAB8
:102C3000F67888EAFA78CDF80880DDF81C80DDF8AF
:102C400014908EEAF37E8EEAF87EDDF8108004EBB5
:102C5000F7648EEAF87844EAB70ECDF82C800EEAD5
:102C6000BC0E04EAB7084EEA080802EBFB7E01EB53
:102C7000F4610EEBB00EF04441EAB40E0EEAB70E6A
:102C800001EAB40008EBF1684EEA000002EBF37EC3
:102C90000EEBBC0E48EAB10C0CEAB40C704408EA26
:102CA000B10E4CEA0E0E02EBF97C0CEBB70CF444BF
:102CB000DDF818E002EBFE7202EBB4024C464FEA7C
:102CC000F47787EAFB79DDF820B00A9C4FEAFE7EB4
:102CD00089EAFB798EEAF37B029B89EAF379099B07
:102CE0008BEAF37B019B8BEAF47B87EAF3770B9CFF
:102CF00087EAFA7787EAF4778EEAF67EA44C109E8C
:102D000000EBF8608EEAF57E8EEAF97E40EAB803C1
:102D100004EBF9792644CDF814900C9600EAB80932
:102D2000019E03EAB1030CEBF06C43EA09034FEA9E
:102D3000B00004EBF679134480EAB80209EBB1095C
:102D400082EA0C024A44DDF8009003EBFC6380EA5F
:102D5000BC0104EBF97909EBB80959404944DDF8A5
:102D60000C9002EBF3624FEAB30383EABC0804EB76
:102D7000F97988EA0208814408EB0900DDF80C8043
:102D80004FEAF87989EAF678049E88EAF67888EAC4
:102D9000FB7804EBFB7BCDF804B0DDF820B0CDF878
:102DA000108089EAFB7904EBFB78DDF828B089EA2A
:102DB000FB7989EAFE7904EBFE7ECDF80CE004EBAA
:102DC000F97EDDF81C90CDF818E004EBF97E01EBFC
:102DD000F26198440EEBBC0E83EAB2034FEAF97C31
:102DE000DDF800904B4073448CEAF97EDDF80890E2
:102DF0008EEAF97E8EEAF77E04EBFE7ECDF800E0E7
:102E0000DDF824E000EBF1608CEAFE7C4FEAB101D2
:102E100004EBFE7E0EEBB20E81EAB20204EBFA7A0C
:102E2000424003EBF0638A44424481EAB00102EB82
:102E3000F36204EBF57559404FEAB30305EBB005B7
:102E400083EAB00004EBF6767144504001EBF26186
:102E50001E44504483EAB20300EBF16004EBF979BD
:102E60004B404FEAB10109EBB20981EAB202DDF849
:102E70002C8004EBFB7B2B44424003EBF0638B4440
:102E8000324481EAB00102EBF36204EBF87E594070
:102E90004FEAB3030EEBB00E059D83EAB000494440
:102EA000504001EBF2611D44DDF80490584483EA80
:102EB000B20300EBF1604B404FEAB10109EBB206FF
:102EC00004EBF777734481EAB20203EBF0630F443B
:102ED0008CEAF87C4240DDF81080DDF850E081EAB1
:102EE000B0012A445940039D02EBF36231444FEA9A
:102EF000B30304EBF87401EBF26105EBB0051C447D
:102F000083EAB00083EAB20350404B4038442B447C
:102F1000009D129E139F00EBF1604FEAB10105EB9B
:102F2000B20581EAB20242402244069C8CEAF87C57
:102F3000DDF8308003EBF0630C4481EAB00102EB72
:102F4000F362594008EBFC7C4FEAB3030CEBB00C86
:102F500083EAB00050400D4405EBF265119904443A
:102F600004EBF56415982144016506EBB501416554
:102F700007EBB20183EAB2026A4094440CEBF464BA
:102F800073448165C464C365002017B0BDE8F08F49
:102F9000D6C162CAB8B10D4A10B40D4CC2640D4A14
:102FA0000166C0E9144202F12C520B4910BC02F533
:102FB000C012002302F2F242C0E91612C0E9003347
:102FC0008360184670476FF0AC0070470123456777
:102FD00089ABCDEFFEDCBA9876543210002800F0B1
:102FE00099802DE9F04F0C4683B0904600296BD0B4
:102FF000824600683F2800F28A80DAF80430D3184D
:10300000CAF8043004D3DAF808300133CAF80830BB
:103010000AF10C06B0BBB8F13F0F5ED9A8F140072A
:1030200027F03F07403727440AF108090AF148050D
:10303000334604F1400BD4F800C06068A168E26830
:10304000DA6010345C45C3F800C05860996003F141
:103050001003F0D15C464B4653F8042F12BA9D4240
:103060001A60F9D131465046FFF764F85F450346D0
:10307000DED108F03F08B8F1000F18D1184603B0B0
:10308000BDE8F08FC0F14007474528BF47463044B0
:103090003A46214603F0BAFADAF800303B44402BB6
:1030A000CAF800301FD03C44A8EB0708B3E7394604
:1030B00030464246019303F0A9FA019BCAF800800A
:1030C000184603B0BDE8F08F002A14BF6FF0AC03C0
:1030D0000023184603B0BDE8F08F27460023B8F15F
:1030E000000FCBD0E3E70AF108030AF1480553F8D3
:1030F000041F09BAAB421960F9D131465046FFF7B7
:1031000019F803460028B9D1CAF80000CBE76FF0E0
:103110008303B3E76FF0AC0318467047002800F054
:1031200085802DE9F0410F4600297CD08046064677
:1031300058F80C3B3F2B73D85A1C0260802208F8C9
:1031400003200368382B62D93F2B58D935464023DA
:1031500045F8083B06F148042B4653F8042F12BAF1
:103160009C421A60F9D141463046FEF7E3FF002841
:1031700043D1306038224046002102F0CDFA2B4680
:1031800053F8042F12BA9C421A60F9D17368B068E0
:103190005A0F02EBC002DB0041467360B364B260B9
:1031A00072643046FEF7C6FF06F14C05234606F171
:1031B0005C0153F8042F12BA8B421A60F9D1696886
:1031C000AB68EC68F26C3A607960BB60FC602A69BD
:1031D00018493A61184AF16401F18831C6E91412BC
:1031E00002F12C52154902F5C012002302F2F242FC
:1031F000C6E91612C6E90033B360BDE8F081C3F139
:10320000400208EB0300002102F086FA9EE708EB7B
:103210000300C3F1380206F1080506F14804ABE7E4
:103220006FF0BF00E9E76FF0AC00E6E76FF0AC00CD
:10323000704700BF01234567FEDCBA987654321010
:10324000704700BF2DE9F04F80460C460068D8F863
:103250000410D8F80820D8F80C30CBB002AD0FC558
:10326000D8F81000D8F81410D8F81820D8F81C3066
:103270000FC504F140072E4620686168A268E36824
:1032800035460FC51034BC422E46F5D1DDE9183461
:103290000DF1280E0A983AAE71461F46D1F824C0A7
:1032A000054651F8040F4FEAF74282EA77424FEAA7
:1032B000B04382EA972283EAF013624483EAD003A0
:1032C0001A442746B14205EB0204CC63E6D1AB4F6A
:1032D000DDF824C0069DCDF80480DDE90706DDE9B0
:1032E0000232DDE9041407F5807BD7F80080DEF8B0
:1032F0000090C1444FEAF52888EAB51888EA756855
:10330000C84486EA000909EA050989EA0609C844A9
:10331000E04404EB080C4FEAB30484EA733484EA13
:10332000B354444443EA020803EA020908EA0108E4
:1033300048EA09084444DEF80490D7F8048008EB12
:10334000090AB24485EA000606EA0C064640B24481
:103350004FEAFC2686EABC1686EA7C66B2444FEA4F
:10336000743686EAB40686EAB45601EB0A0806EB20
:103370000A09B968DEF8086044EA030A31440AEA37
:10338000020A014404EA03004AEA000A85EA0C0042
:1033900000EA0800684001444FEAF82080EAB810CB
:1033A00009EB0A0680EA786001444FEA763080EA49
:1033B000B60080EAB65002EB01090844FA68DEF86C
:1033C0000C1044EA060A0AEA030A0A4404EA06015F
:1033D0004AEA010A8CEA080101EA090181EA0C01C2
:1033E0002A4450440A444FEAF92181EAB9114FEACC
:1033F000703581EA796185EAB0050A4485EAB055FD
:1034000003EB020A15443B69DEF8102046EA00018E
:103410002140134406EA0002114388EA090202EA45
:103420000A0282EA0802634413444FEAFA2282EA5B
:10343000BA1282EA7A620D44134404EB030C4FEA99
:10344000753484EAB50484EAB554DEF814201C44CB
:103450007B6940EA05013140134400EA050211434B
:1034600089EA0A0202EA0C0282EA090243440C4495
:1034700013444FEAFC2282EABC124FEA743182EA1A
:103480007C6281EAB401134481EAB4511E44DEF83F
:1034900018201944BB6945EA040808EA00081344E7
:1034A00005EA040248EA02088AEA0C0232404B4468
:1034B00082EA0A0213444FEAF62282EAB612414433
:1034C00082EA766213444FEA713282EAB10282EAFA
:1034D000B152184402EB0308FA69DEF81C3044EAE2
:1034E00001091A4402EB0A0309EA050904EA010288
:1034F00049EA020908EB09028CEA060808EA000812
:1035000088EA0C0898444FEAF02383EAB01383EA70
:10351000706398444FEA723383EAB20383EAB2538A
:103520004344454441EA0208203708EA040801EA16
:10353000020948EA09085F450EF1200E43447FF472
:10354000D4AEDDF8048004910293CDF824C0A8F134
:1035500004030594089607900392069501A908F1C3
:103560001C0853F8042F51F8040F434502441A6015
:10357000F7D100204BB0BDE8F08F00BF74040210FB
:10358000C0B110B40D4A0E4CC0E900420D4C0E4AB9
:10359000C0E902420D4C0E4AC0E904420D4C0E4AED
:1035A0000023C0E90642C0E91833C0E91A3110BC53
:1035B000184670476FF0AC00704700BF85AE67BB20
:1035C00067E6096A72F36E3C3AF54FA57F520E51D9
:1035D0008C68059BABD9831F19CDE05B00287DD09B
:1035E0002DE9F8430C46904600293BD00546006E75
:1035F0003F2876D86B6ED3186B6602D3AB6E01335F
:10360000AB6605F1200600283DD128F03F0727448E
:1036100005F15C09BC4229D02146334604F1400E35
:10362000D1F800C04C688868CA68DA60103171450A
:10363000C3F800C05C60986003F11003F0D10C4641
:10364000A8F1400805F11C0353F8042F12BA99455C
:103650001A60F9D131462846FFF7F4FD0028D9D089
:10366000BDE8F883BABB0020BDE8F8830028F7D195
:10367000B8F1000FF7D042462146304602F0C6FFAF
:10368000C5F86080EFE7C0F14007474528BF4746CF
:103690003A462146304402F0B9FF2B6E3C44A8EB79
:1036A00007081F44402F2F6601D00020ADE705F129
:1036B0001C0305F15C0153F8042F12BA99421A60F9
:1036C000F9D131462846FFF7BDFD08B928669CE7C9
:1036D0004FF0000899E76FF0AC00C1E76FF0AC0065
:1036E00070476FF08300BBE7002800F08980F8B5D1
:1036F0000D46002900F08180036E3F2B044679D8E7
:103700005A1C00F1200702668022FA54036E382BFF
:103710006AD93F2B61D904F11C06334604F15C01E0
:1037200053F8042F12BA99421A60F9D1394620464B
:10373000FFF788FD00284FD1206638223846002147
:1037400001F0EAFFD4E919315A0F02EBC102DB00A4
:103750006366A266334604F1540153F8042F12BA8B
:1037600099421A60F9D1636EE365A36EA365394689
:103770002046FFF767FD78BB231F53F8042F12BACA
:10378000B3421A60F9D121686368A268E668EE6006
:1037900029606B60AA6021696369A269E669296191
:1037A00019496B61AA61EE61184A21601849C4E9A0
:1037B00001121849184AC4E90312184A184900238B
:1037C000C4E9051202F17452A2F52302C4E91833C8
:1037D000A2F69242E261A366F8BDC3F14002F81876
:1037E000002101F099FF96E7F818C3F1380204F1BF
:1037F0001C06A4E76FF0BF00F8BD6FF0AC00F8BD89
:103800006FF0AC00704700BF67E6096A72F36E3C68
:1038100085AE67BB3AF54FA57F520E51ABD9831FDA
:103820008C68059BC0B110B40D4A0E4C0E49C0E91E
:1038300000420E4A0E4CC0E902120E4A0E49C0E97F
:1038400004420E4A10BC0023C0E90612C0E9183336
:10385000C0E91A33184670476FF0AC00704700BFDC
:1038600085AE67BB67E6096A72F36E3C3AF54FA511
:103870007F520E518C68059BABD9831F19CDE05B3D
:1038800038B100F1700100220346013088421A70FD
:10389000FAD1704708B50346014803F0D7FCFEE7AC
:1038A00018DF0110002000F0EDBD00BF012000F086
:1038B000E9BD00BF10B5002000F066FB012000F05C
:1038C00063FB402000F060FB104B022218684FF4AD
:1038D000E13101F077FB041E0CDB00F0EBF858B986
:1038E00000F088F8044660B9094B0A484322DA60C0
:1038F00000F0C8FA204610BD074908486522FFF7C6
:10390000C9FF054905486A22FFF7C4FF08000020E7
:1039100000440040400D030034DF01107CDF011043
:1039200000BF70474FF0FF30704700BF4FF0FF30CF
:10393000704700BF4FF0FF30704700BF4FF0FF30BF
:10394000704700BF2DE9F04100BB002A174605462D
:1039500017DD124E0C4601E0AF4214D0304601F0A4
:1039600029FCC1B22170304601F026FCA04614F8B3
:10397000013B0D2B05F10105EED10A2388F800303B
:103980002846BDE8F0813846BDE8F08102F0ACFB86
:10399000092303604FF0FF30F3E700BF002004402D
:1039A000F8B5431E012B1CD8002A174617DD531EFD
:1039B0000F4E4C1ECD1804E0304601F0FDFBAC422A
:1039C0000DD014F8011F0A29F6D10D21304601F05F
:1039D000F3FB2178304601F0EFFBAC42F1D13846E1
:1039E000F8BD02F081FB092303604FF0FF30F8BD02
:1039F00000200440F8B50D4B1F68A7B100250C4C02
:103A00002E46D4E9000100F00FFD204600F0EAFB4D
:103A10000135002818BF6FF00706AF4204F10C040F
:103A2000EFD13046F8BD3E463046F8BD7405021071
:103A3000780502100B4B1B68834210B504460BD966
:103A4000094B04EB440403EB840253F8240051684F
:103A5000BDE8104000F0FEBC044905482F22FFF7E6
:103A600019FFEDE7740502107805021084DF0110DC
:103A7000B8DF01100B4B1B68834210B504460BD90D
:103A8000094B04EB440403EB840253F8240051680F
:103A9000BDE8104000F0C8BC044905483A22FFF7D1
:103AA000F9FEEDE7740502107805021084DF0110BD
:103AB000B8DF0110F8B50B4B1F6887B100240A4D21
:103AC0002646284600F08EFB0134002818BF6FF010
